{
  "contractName": "CPABEUserRegistry",
  "abi": [
    {
      "anonymous": false,
      "inputs": [
        {
          "indexed": true,
          "internalType": "address",
          "name": "user",
          "type": "address"
        },
        {
          "indexed": false,
          "internalType": "string",
          "name": "ipfsHash",
          "type": "string"
        }
      ],
      "name": "UserDataRetrieved",
      "type": "event"
    },
    {
      "anonymous": false,
      "inputs": [
        {
          "indexed": true,
          "internalType": "address",
          "name": "user",
          "type": "address"
        },
        {
          "indexed": false,
          "internalType": "string",
          "name": "ipfsHash",
          "type": "string"
        }
      ],
      "name": "UserRegistered",
      "type": "event"
    },
    {
      "inputs": [
        {
          "internalType": "address",
          "name": "",
          "type": "address"
        }
      ],
      "name": "isRegistered",
      "outputs": [
        {
          "internalType": "bool",
          "name": "",
          "type": "bool"
        }
      ],
      "stateMutability": "view",
      "type": "function"
    },
    {
      "inputs": [
        {
          "internalType": "bytes32",
          "name": "_faceHash",
          "type": "bytes32"
        },
        {
          "internalType": "string",
          "name": "_ipfsHash",
          "type": "string"
        }
      ],
      "name": "registerUser",
      "outputs": [],
      "stateMutability": "nonpayable",
      "type": "function"
    },
    {
      "inputs": [],
      "name": "getUserIPFSData",
      "outputs": [
        {
          "internalType": "string",
          "name": "",
          "type": "string"
        }
      ],
      "stateMutability": "view",
      "type": "function"
    }
  ],
  "bytecode": "0x608060405234801561001057600080fd5b50610948806100206000396000f3fe608060405234801561001057600080fd5b50600436106100415760003560e01c80631545d69e146100465780634a54315c14610064578063c3c5a54714610080575b600080fd5b61004e6100b0565b60405161005b919061051c565b60405180910390f35b61007e600480360381019061007991906106bd565b61020d565b005b61009a60048036038101906100959190610777565b6103c0565b6040516100a791906107bf565b60405180910390f35b6060600160003373ffffffffffffffffffffffffffffffffffffffff1673ffffffffffffffffffffffffffffffffffffffff16815260200190815260200160002060009054906101000a900460ff1661013e576040517f08c379a000000000000000000000000000000000000000000000000000000000815260040161013590610826565b60405180910390fd5b6000803373ffffffffffffffffffffffffffffffffffffffff1673ffffffffffffffffffffffffffffffffffffffff168152602001908152602001600020600101805461018a90610875565b80601f01602080910402602001604051908101604052809291908181526020018280546101b690610875565b80156102035780601f106101d857610100808354040283529160200191610203565b820191906000526020600020905b8154815290600101906020018083116101e657829003601f168201915b5050505050905090565b600160003373ffffffffffffffffffffffffffffffffffffffff1673ffffffffffffffffffffffffffffffffffffffff16815260200190815260200160002060009054906101000a900460ff161561029a576040517f08c379a0000000000000000000000000000000000000000000000000000000008152600401610291906108f2565b60405180910390fd5b60018060003373ffffffffffffffffffffffffffffffffffffffff1673ffffffffffffffffffffffffffffffffffffffff16815260200190815260200160002060006101000a81548160ff0219169083151502179055506040518060400160405280838152602001828152506000803373ffffffffffffffffffffffffffffffffffffffff1673ffffffffffffffffffffffffffffffffffffffff16815260200190815260200160002060008201518160000155602082015181600101908051906020019061036a9291906103e0565b509050503373ffffffffffffffffffffffffffffffffffffffff167f48cac28ad4dc618e15f4c2dd5e97751182f166de97b25618318b2112aa951a2f826040516103b4919061051c565b60405180910390a25050565b60016020528060005260406000206000915054906101000a900460ff1681565b8280546103ec90610875565b90600052602060002090601f01602090048101928261040e5760008555610455565b82601f1061042757805160ff1916838001178555610455565b82800160010185558215610455579182015b82811115610454578251825591602001919060010190610439565b5b5090506104629190610466565b5090565b5b8082111561047f576000816000905550600101610467565b5090565b600081519050919050565b600082825260208201905092915050565b60005b838110156104bd5780820151818401526020810190506104a2565b838111156104cc576000848401525b50505050565b6000601f19601f8301169050919050565b60006104ee82610483565b6104f8818561048e565b935061050881856020860161049f565b610511816104d2565b840191505092915050565b6000602082019050818103600083015261053681846104e3565b905092915050565b6000604051905090565b600080fd5b600080fd5b6000819050919050565b61056581610552565b811461057057600080fd5b50565b6000813590506105828161055c565b92915050565b600080fd5b600080fd5b7f4e487b7100000000000000000000000000000000000000000000000000000000600052604160045260246000fd5b6105ca826104d2565b810181811067ffffffffffffffff821117156105e9576105e8610592565b5b80604052505050565b60006105fc61053e565b905061060882826105c1565b919050565b600067ffffffffffffffff82111561062857610627610592565b5b610631826104d2565b9050602081019050919050565b82818337600083830152505050565b600061066061065b8461060d565b6105f2565b90508281526020810184848401111561067c5761067b61058d565b5b61068784828561063e565b509392505050565b600082601f8301126106a4576106a3610588565b5b81356106b484826020860161064d565b91505092915050565b600080604083850312156106d4576106d3610548565b5b60006106e285828601610573565b925050602083013567ffffffffffffffff8111156107035761070261054d565b5b61070f8582860161068f565b9150509250929050565b600073ffffffffffffffffffffffffffffffffffffffff82169050919050565b600061074482610719565b9050919050565b61075481610739565b811461075f57600080fd5b50565b6000813590506107718161074b565b92915050565b60006020828403121561078d5761078c610548565b5b600061079b84828501610762565b91505092915050565b60008115159050919050565b6107b9816107a4565b82525050565b60006020820190506107d460008301846107b0565b92915050565b7f55736572206973206e6f7420726567697374657265642e000000000000000000600082015250565b600061081060178361048e565b915061081b826107da565b602082019050919050565b6000602082019050818103600083015261083f81610803565b9050919050565b7f4e487b7100000000000000000000000000000000000000000000000000000000600052602260045260246000fd5b6000600282049050600182168061088d57607f821691505b6020821081036108a05761089f610846565b5b50919050565b7f5573657220616c726561647920726567697374657265642e0000000000000000600082015250565b60006108dc60188361048e565b91506108e7826108a6565b602082019050919050565b6000602082019050818103600083015261090b816108cf565b905091905056fea26469706673582212207af0b981385969675d8c32fbfa2d2cc3a887937828c6016dcdc9e43491879cf964736f6c634300080d0033",
  "immutableReferences": {},
  "source": "// SPDX-License-Identifier: MIT\r\npragma solidity ^0.8.13;\r\n\r\ncontract CPABEUserRegistry {\r\n    struct User {\r\n        bytes32 faceHash; // Hashed face data\r\n        string ipfsHash;  // IPFS hash of encrypted data\r\n    }\r\n\r\n    mapping(address => User) private users;\r\n    mapping(address => bool) public isRegistered;\r\n\r\n    event UserRegistered(address indexed user, string ipfsHash);\r\n    event UserDataRetrieved(address indexed user, string ipfsHash);\r\n\r\n    function registerUser(bytes32 _faceHash, string memory _ipfsHash) public {\r\n        require(!isRegistered[msg.sender], \"User already registered.\");\r\n        isRegistered[msg.sender] = true;\r\n        users[msg.sender] = User(_faceHash, _ipfsHash);\r\n        emit UserRegistered(msg.sender, _ipfsHash);\r\n    }\r\n\r\n    function getUserIPFSData() public view returns (string memory) {\r\n        require(isRegistered[msg.sender], \"User is not registered.\");\r\n        return users[msg.sender].ipfsHash;\r\n    }\r\n}\r\n",
  "sourcePath": "D:\\biocryptor\\contracts\\CPABEUserRegistry.sol",
  "compiler": {
    "name": "solc",
    "version": "0.8.13+commit.abaa5c0e.Emscripten.clang"
  },
  "schemaVersion": "3.4.16",
  "updatedAt": "2025-04-07T15:31:09.341Z",
  "devdoc": {
    "kind": "dev",
    "methods": {},
    "version": 1
  },
  "userdoc": {
    "kind": "user",
    "methods": {},
    "version": 1
  }
}