{
  "contractName": "CPABEDecryption",
  "abi": [
    {
      "anonymous": false,
      "inputs": [
        {
          "indexed": true,
          "internalType": "address",
          "name": "user",
          "type": "address"
        },
        {
          "indexed": true,
          "internalType": "bytes32",
          "name": "dataHash",
          "type": "bytes32"
        },
        {
          "indexed": true,
          "internalType": "bytes32",
          "name": "attributesUsedHash",
          "type": "bytes32"
        },
        {
          "indexed": false,
          "internalType": "uint256",
          "name": "timestamp",
          "type": "uint256"
        },
        {
          "indexed": false,
          "internalType": "bool",
          "name": "success",
          "type": "bool"
        }
      ],
      "name": "DataDecrypted",
      "type": "event"
    },
    {
      "inputs": [
        {
          "internalType": "bytes32",
          "name": "",
          "type": "bytes32"
        }
      ],
      "name": "records",
      "outputs": [
        {
          "internalType": "address",
          "name": "user",
          "type": "address"
        },
        {
          "internalType": "bytes32",
          "name": "dataHash",
          "type": "bytes32"
        },
        {
          "internalType": "bytes32",
          "name": "attributesUsedHash",
          "type": "bytes32"
        },
        {
          "internalType": "uint256",
          "name": "timestamp",
          "type": "uint256"
        },
        {
          "internalType": "bool",
          "name": "success",
          "type": "bool"
        }
      ],
      "stateMutability": "view",
      "type": "function",
      "constant": true
    },
    {
      "inputs": [
        {
          "internalType": "bytes32",
          "name": "dataHash",
          "type": "bytes32"
        },
        {
          "internalType": "bytes32",
          "name": "attributesUsedHash",
          "type": "bytes32"
        },
        {
          "internalType": "bool",
          "name": "success",
          "type": "bool"
        }
      ],
      "name": "logDecryption",
      "outputs": [],
      "stateMutability": "nonpayable",
      "type": "function"
    },
    {
      "inputs": [
        {
          "internalType": "bytes32",
          "name": "dataHash",
          "type": "bytes32"
        }
      ],
      "name": "getRecord",
      "outputs": [
        {
          "internalType": "address",
          "name": "",
          "type": "address"
        },
        {
          "internalType": "bytes32",
          "name": "",
          "type": "bytes32"
        },
        {
          "internalType": "bytes32",
          "name": "",
          "type": "bytes32"
        },
        {
          "internalType": "uint256",
          "name": "",
          "type": "uint256"
        },
        {
          "internalType": "bool",
          "name": "",
          "type": "bool"
        }
      ],
      "stateMutability": "view",
      "type": "function",
      "constant": true
    }
  ],
  "bytecode": "0x608060405234801561001057600080fd5b5061064e806100206000396000f3fe608060405234801561001057600080fd5b50600436106100415760003560e01c806301e6472514610046578063213681cd1461007a578063bc95efe5146100ae575b600080fd5b610060600480360381019061005b91906103ef565b6100ca565b6040516100719594939291906104a0565b60405180910390f35b610094600480360381019061008f91906103ef565b61012d565b6040516100a59594939291906104a0565b60405180910390f35b6100c860048036038101906100c3919061051f565b610284565b005b60006020528060005260406000206000915090508060000160009054906101000a900473ffffffffffffffffffffffffffffffffffffffff16908060010154908060020154908060030154908060040160009054906101000a900460ff16905085565b6000806000806000806000808881526020019081526020016000206040518060a00160405290816000820160009054906101000a900473ffffffffffffffffffffffffffffffffffffffff1673ffffffffffffffffffffffffffffffffffffffff1673ffffffffffffffffffffffffffffffffffffffff1681526020016001820154815260200160028201548152602001600382015481526020016004820160009054906101000a900460ff1615151515815250509050600073ffffffffffffffffffffffffffffffffffffffff16816000015173ffffffffffffffffffffffffffffffffffffffff1603610257576040517f08c379a000000000000000000000000000000000000000000000000000000000815260040161024e906105cf565b60405180910390fd5b80600001518160200151826040015183606001518460800151955095509550955095505091939590929450565b6040518060a001604052803373ffffffffffffffffffffffffffffffffffffffff16815260200184815260200183815260200142815260200182151581525060008085815260200190815260200160002060008201518160000160006101000a81548173ffffffffffffffffffffffffffffffffffffffff021916908373ffffffffffffffffffffffffffffffffffffffff16021790555060208201518160010155604082015181600201556060820151816003015560808201518160040160006101000a81548160ff02191690831515021790555090505081833373ffffffffffffffffffffffffffffffffffffffff167f361d4c048d8a5d9bf9eee8adc96d1e6e45dc5a83c68b0d76c6c9c7a8b86a37d642856040516103a79291906105ef565b60405180910390a4505050565b600080fd5b6000819050919050565b6103cc816103b9565b81146103d757600080fd5b50565b6000813590506103e9816103c3565b92915050565b600060208284031215610405576104046103b4565b5b6000610413848285016103da565b91505092915050565b600073ffffffffffffffffffffffffffffffffffffffff82169050919050565b60006104478261041c565b9050919050565b6104578161043c565b82525050565b610466816103b9565b82525050565b6000819050919050565b61047f8161046c565b82525050565b60008115159050919050565b61049a81610485565b82525050565b600060a0820190506104b5600083018861044e565b6104c2602083018761045d565b6104cf604083018661045d565b6104dc6060830185610476565b6104e96080830184610491565b9695505050505050565b6104fc81610485565b811461050757600080fd5b50565b600081359050610519816104f3565b92915050565b600080600060608486031215610538576105376103b4565b5b6000610546868287016103da565b9350506020610557868287016103da565b92505060406105688682870161050a565b9150509250925092565b600082825260208201905092915050565b7f5265636f7264206e6f7420666f756e6400000000000000000000000000000000600082015250565b60006105b9601083610572565b91506105c482610583565b602082019050919050565b600060208201905081810360008301526105e8816105ac565b9050919050565b60006040820190506106046000830185610476565b6106116020830184610491565b939250505056fea2646970667358221220f1b3364817f06a74a090c132a8e00bcf6a77ceb4bb7ac4e95af47941315fd8f064736f6c634300080d0033",
  "immutableReferences": {},
  "source": "// SPDX-License-Identifier: MIT\r\npragma solidity ^0.8.13;\r\n\r\ncontract CPABEDecryption {\r\n\r\n    struct DecryptionRecord {\r\n        address user;\r\n        bytes32 dataHash;  // Hash of encrypted data\r\n        bytes32 attributesUsedHash;  // Hash of attributes used for decryption\r\n        uint256 timestamp;  // Time of decryption\r\n        bool success;  // Whether decryption was successful\r\n    }\r\n\r\n    mapping(bytes32 => DecryptionRecord) public records;\r\n\r\n    event DataDecrypted(\r\n        address indexed user,\r\n        bytes32 indexed dataHash,\r\n        bytes32 indexed attributesUsedHash,\r\n        uint256 timestamp,\r\n        bool success\r\n    );\r\n\r\n    function logDecryption(\r\n        bytes32 dataHash, \r\n        bytes32 attributesUsedHash, \r\n        bool success\r\n    ) public {\r\n        records[dataHash] = DecryptionRecord({\r\n            user: msg.sender,\r\n            dataHash: dataHash,\r\n            attributesUsedHash: attributesUsedHash,\r\n            timestamp: block.timestamp,\r\n            success: success\r\n        });\r\n\r\n        emit DataDecrypted(msg.sender, dataHash, attributesUsedHash, block.timestamp, success);\r\n    }\r\n\r\n    function getRecord(bytes32 dataHash) \r\n        public \r\n        view \r\n        returns (address, bytes32, bytes32, uint256, bool) \r\n    {\r\n        DecryptionRecord memory record = records[dataHash];\r\n        require(record.user != address(0), \"Record not found\");\r\n        return (record.user, record.dataHash, record.attributesUsedHash, record.timestamp, record.success);\r\n    }\r\n}\r\n",
  "sourcePath": "D:\\biocryptor\\contracts\\CPABEDecryption.sol",
  "compiler": {
    "name": "solc",
    "version": "0.8.13+commit.abaa5c0e.Emscripten.clang"
  },
  "schemaVersion": "3.4.16",
  "updatedAt": "2025-04-07T15:24:58.460Z",
  "networkType": "ethereum",
  "devdoc": {
    "kind": "dev",
    "methods": {},
    "version": 1
  },
  "userdoc": {
    "kind": "user",
    "methods": {},
    "version": 1
  }
}