{
  "contractName": "DecryptionLog",
  "abi": [
    {
      "anonymous": false,
      "inputs": [
        {
          "indexed": true,
          "internalType": "address",
          "name": "user",
          "type": "address"
        },
        {
          "indexed": false,
          "internalType": "string",
          "name": "ipfsCid",
          "type": "string"
        },
        {
          "indexed": false,
          "internalType": "uint256",
          "name": "timestamp",
          "type": "uint256"
        }
      ],
      "name": "DecryptionLogged",
      "type": "event"
    },
    {
      "inputs": [
        {
          "internalType": "uint256",
          "name": "",
          "type": "uint256"
        }
      ],
      "name": "logs",
      "outputs": [
        {
          "internalType": "address",
          "name": "user",
          "type": "address"
        },
        {
          "internalType": "string",
          "name": "ipfsCid",
          "type": "string"
        },
        {
          "internalType": "uint256",
          "name": "timestamp",
          "type": "uint256"
        }
      ],
      "stateMutability": "view",
      "type": "function"
    },
    {
      "inputs": [
        {
          "internalType": "string",
          "name": "ipfsCid",
          "type": "string"
        }
      ],
      "name": "logDecryption",
      "outputs": [],
      "stateMutability": "nonpayable",
      "type": "function"
    },
    {
      "inputs": [],
      "name": "getLogs",
      "outputs": [
        {
          "components": [
            {
              "internalType": "address",
              "name": "user",
              "type": "address"
            },
            {
              "internalType": "string",
              "name": "ipfsCid",
              "type": "string"
            },
            {
              "internalType": "uint256",
              "name": "timestamp",
              "type": "uint256"
            }
          ],
          "internalType": "struct DecryptionLog.LogEntry[]",
          "name": "",
          "type": "tuple[]"
        }
      ],
      "stateMutability": "view",
      "type": "function"
    },
    {
      "inputs": [],
      "name": "getLogCount",
      "outputs": [
        {
          "internalType": "uint256",
          "name": "",
          "type": "uint256"
        }
      ],
      "stateMutability": "view",
      "type": "function"
    },
    {
      "inputs": [
        {
          "internalType": "uint256",
          "name": "index",
          "type": "uint256"
        }
      ],
      "name": "getLogByIndex",
      "outputs": [
        {
          "internalType": "address",
          "name": "",
          "type": "address"
        },
        {
          "internalType": "string",
          "name": "",
          "type": "string"
        },
        {
          "internalType": "uint256",
          "name": "",
          "type": "uint256"
        }
      ],
      "stateMutability": "view",
      "type": "function"
    }
  ],
  "bytecode": "0x608060405234801561001057600080fd5b50610cd8806100206000396000f3fe608060405234801561001057600080fd5b50600436106100575760003560e01c8063618033db1461005c5780639e8b7b3d1461007a578063c9084d12146100ac578063e79899bd146100c8578063fe290ccb146100fa575b600080fd5b610064610118565b60405161007191906106bd565b60405180910390f35b610094600480360381019061008f9190610718565b610124565b6040516100a39392919061081f565b60405180910390f35b6100c660048036038101906100c19190610992565b6102af565b005b6100e260048036038101906100dd9190610718565b6103ce565b6040516100f19392919061081f565b60405180910390f35b6101026104b0565b60405161010f9190610b55565b60405180910390f35b60008080549050905090565b60006060600080805490508410610170576040517f08c379a000000000000000000000000000000000000000000000000000000000815260040161016790610bc3565b60405180910390fd5b600080858154811061018557610184610be3565b5b90600052602060002090600302016040518060600160405290816000820160009054906101000a900473ffffffffffffffffffffffffffffffffffffffff1673ffffffffffffffffffffffffffffffffffffffff1673ffffffffffffffffffffffffffffffffffffffff16815260200160018201805461020490610c41565b80601f016020809104026020016040519081016040528092919081815260200182805461023090610c41565b801561027d5780601f106102525761010080835404028352916020019161027d565b820191906000526020600020905b81548152906001019060200180831161026057829003601f168201915b505050505081526020016002820154815250509050806000015181602001518260400151935093509350509193909250565b600060405180606001604052803373ffffffffffffffffffffffffffffffffffffffff16815260200183815260200142815250908060018154018082558091505060019003906000526020600020906003020160009091909190915060008201518160000160006101000a81548173ffffffffffffffffffffffffffffffffffffffff021916908373ffffffffffffffffffffffffffffffffffffffff160217905550602082015181600101908051906020019061036e929190610601565b506040820151816002015550503373ffffffffffffffffffffffffffffffffffffffff167f6bbd8b3d03252dff205eec84b9cc8ab956a65c754de7219dfda50083f3b899ab82426040516103c3929190610c72565b60405180910390a250565b600081815481106103de57600080fd5b90600052602060002090600302016000915090508060000160009054906101000a900473ffffffffffffffffffffffffffffffffffffffff169080600101805461042790610c41565b80601f016020809104026020016040519081016040528092919081815260200182805461045390610c41565b80156104a05780601f10610475576101008083540402835291602001916104a0565b820191906000526020600020905b81548152906001019060200180831161048357829003601f168201915b5050505050908060020154905083565b60606000805480602002602001604051908101604052809291908181526020016000905b828210156105f857838290600052602060002090600302016040518060600160405290816000820160009054906101000a900473ffffffffffffffffffffffffffffffffffffffff1673ffffffffffffffffffffffffffffffffffffffff1673ffffffffffffffffffffffffffffffffffffffff16815260200160018201805461055d90610c41565b80601f016020809104026020016040519081016040528092919081815260200182805461058990610c41565b80156105d65780601f106105ab576101008083540402835291602001916105d6565b820191906000526020600020905b8154815290600101906020018083116105b957829003601f168201915b50505050508152602001600282015481525050815260200190600101906104d4565b50505050905090565b82805461060d90610c41565b90600052602060002090601f01602090048101928261062f5760008555610676565b82601f1061064857805160ff1916838001178555610676565b82800160010185558215610676579182015b8281111561067557825182559160200191906001019061065a565b5b5090506106839190610687565b5090565b5b808211156106a0576000816000905550600101610688565b5090565b6000819050919050565b6106b7816106a4565b82525050565b60006020820190506106d260008301846106ae565b92915050565b6000604051905090565b600080fd5b600080fd5b6106f5816106a4565b811461070057600080fd5b50565b600081359050610712816106ec565b92915050565b60006020828403121561072e5761072d6106e2565b5b600061073c84828501610703565b91505092915050565b600073ffffffffffffffffffffffffffffffffffffffff82169050919050565b600061077082610745565b9050919050565b61078081610765565b82525050565b600081519050919050565b600082825260208201905092915050565b60005b838110156107c05780820151818401526020810190506107a5565b838111156107cf576000848401525b50505050565b6000601f19601f8301169050919050565b60006107f182610786565b6107fb8185610791565b935061080b8185602086016107a2565b610814816107d5565b840191505092915050565b60006060820190506108346000830186610777565b818103602083015261084681856107e6565b905061085560408301846106ae565b949350505050565b600080fd5b600080fd5b7f4e487b7100000000000000000000000000000000000000000000000000000000600052604160045260246000fd5b61089f826107d5565b810181811067ffffffffffffffff821117156108be576108bd610867565b5b80604052505050565b60006108d16106d8565b90506108dd8282610896565b919050565b600067ffffffffffffffff8211156108fd576108fc610867565b5b610906826107d5565b9050602081019050919050565b82818337600083830152505050565b6000610935610930846108e2565b6108c7565b90508281526020810184848401111561095157610950610862565b5b61095c848285610913565b509392505050565b600082601f8301126109795761097861085d565b5b8135610989848260208601610922565b91505092915050565b6000602082840312156109a8576109a76106e2565b5b600082013567ffffffffffffffff8111156109c6576109c56106e7565b5b6109d284828501610964565b91505092915050565b600081519050919050565b600082825260208201905092915050565b6000819050602082019050919050565b610a1081610765565b82525050565b600082825260208201905092915050565b6000610a3282610786565b610a3c8185610a16565b9350610a4c8185602086016107a2565b610a55816107d5565b840191505092915050565b610a69816106a4565b82525050565b6000606083016000830151610a876000860182610a07565b5060208301518482036020860152610a9f8282610a27565b9150506040830151610ab46040860182610a60565b508091505092915050565b6000610acb8383610a6f565b905092915050565b6000602082019050919050565b6000610aeb826109db565b610af581856109e6565b935083602082028501610b07856109f7565b8060005b85811015610b435784840389528151610b248582610abf565b9450610b2f83610ad3565b925060208a01995050600181019050610b0b565b50829750879550505050505092915050565b60006020820190508181036000830152610b6f8184610ae0565b905092915050565b7f496e646578206f7574206f6620626f756e647300000000000000000000000000600082015250565b6000610bad601383610791565b9150610bb882610b77565b602082019050919050565b60006020820190508181036000830152610bdc81610ba0565b9050919050565b7f4e487b7100000000000000000000000000000000000000000000000000000000600052603260045260246000fd5b7f4e487b7100000000000000000000000000000000000000000000000000000000600052602260045260246000fd5b60006002820490506001821680610c5957607f821691505b602082108103610c6c57610c6b610c12565b5b50919050565b60006040820190508181036000830152610c8c81856107e6565b9050610c9b60208301846106ae565b939250505056fea26469706673582212208a50ece55d0299ff41b32eb2c0581638a16cab4ae633e255241e36529d49b8cd64736f6c634300080d0033",
  "immutableReferences": {},
  "source": "// SPDX-License-Identifier: MIT\r\npragma solidity ^0.8.0;\r\n\r\ncontract DecryptionLog {\r\n    // Struct to hold log info\r\n    struct LogEntry {\r\n        address user;\r\n        string ipfsCid;\r\n        uint256 timestamp;\r\n    }\r\n\r\n    // Array of logs\r\n    LogEntry[] public logs;\r\n\r\n    // Event for front-end or external tools to listen\r\n    event DecryptionLogged(address indexed user, string ipfsCid, uint256 timestamp);\r\n\r\n    // Function to log a decryption operation\r\n    function logDecryption(string memory ipfsCid) public {\r\n        logs.push(LogEntry(msg.sender, ipfsCid, block.timestamp));\r\n        emit DecryptionLogged(msg.sender, ipfsCid, block.timestamp);\r\n    }\r\n\r\n    // Optional: Retrieve all logs (not gas efficient for large data)\r\n    function getLogs() public view returns (LogEntry[] memory) {\r\n        return logs;\r\n    }\r\n\r\n    // Get log count\r\n    function getLogCount() public view returns (uint256) {\r\n        return logs.length;\r\n    }\r\n\r\n    // Get a specific log by index\r\n    function getLogByIndex(uint256 index) public view returns (address, string memory, uint256) {\r\n        require(index < logs.length, \"Index out of bounds\");\r\n        LogEntry memory entry = logs[index];\r\n        return (entry.user, entry.ipfsCid, entry.timestamp);\r\n    }\r\n}",
  "sourcePath": "D:\\biocryptor\\contracts\\CPABEDecryption.sol",
  "compiler": {
    "name": "solc",
    "version": "0.8.13+commit.abaa5c0e.Emscripten.clang"
  },
  "schemaVersion": "3.4.16",
  "updatedAt": "2025-04-07T15:31:09.323Z",
  "devdoc": {
    "kind": "dev",
    "methods": {},
    "version": 1
  },
  "userdoc": {
    "kind": "user",
    "methods": {},
    "version": 1
  }
}