{
  "contractName": "EncryptionLog",
  "abi": [
    {
      "anonymous": false,
      "inputs": [
        {
          "indexed": true,
          "internalType": "address",
          "name": "user",
          "type": "address"
        },
        {
          "indexed": false,
          "internalType": "string",
          "name": "ipfsHash",
          "type": "string"
        },
        {
          "indexed": false,
          "internalType": "uint256",
          "name": "timestamp",
          "type": "uint256"
        }
      ],
      "name": "EncryptionLogged",
      "type": "event"
    },
    {
      "inputs": [
        {
          "internalType": "string",
          "name": "_ipfsHash",
          "type": "string"
        }
      ],
      "name": "logEncryption",
      "outputs": [],
      "stateMutability": "nonpayable",
      "type": "function"
    },
    {
      "inputs": [
        {
          "internalType": "address",
          "name": "_user",
          "type": "address"
        }
      ],
      "name": "getEncryptions",
      "outputs": [
        {
          "components": [
            {
              "internalType": "string",
              "name": "ipfsHash",
              "type": "string"
            },
            {
              "internalType": "address",
              "name": "owner",
              "type": "address"
            },
            {
              "internalType": "uint256",
              "name": "timestamp",
              "type": "uint256"
            }
          ],
          "internalType": "struct EncryptionLog.EncryptionRecord[]",
          "name": "",
          "type": "tuple[]"
        }
      ],
      "stateMutability": "view",
      "type": "function",
      "constant": true
    }
  ],
  "bytecode": "0x608060405234801561001057600080fd5b5061094b806100206000396000f3fe608060405234801561001057600080fd5b50600436106100365760003560e01c80630575deea1461003b578063227e226f14610057575b600080fd5b61005560048036038101906100509190610574565b610087565b005b610071600480360381019061006c919061061b565b6101e8565b60405161007e919061080a565b60405180910390f35b600060405180606001604052808381526020013373ffffffffffffffffffffffffffffffffffffffff1681526020014281525090506000803373ffffffffffffffffffffffffffffffffffffffff1673ffffffffffffffffffffffffffffffffffffffff1681526020019081526020016000208190806001815401808255809150506001900390600052602060002090600302016000909190919091506000820151816000019080519060200190610140929190610377565b5060208201518160010160006101000a81548173ffffffffffffffffffffffffffffffffffffffff021916908373ffffffffffffffffffffffffffffffffffffffff1602179055506040820151816002015550503373ffffffffffffffffffffffffffffffffffffffff167fea31ee19fa16dbeb4b6c9f0054a006b108d115ee8cf13e290256d1f56a62650883426040516101dc929190610885565b60405180910390a25050565b60606000808373ffffffffffffffffffffffffffffffffffffffff1673ffffffffffffffffffffffffffffffffffffffff168152602001908152602001600020805480602002602001604051908101604052809291908181526020016000905b8282101561036c578382906000526020600020906003020160405180606001604052908160008201805461027b906108e4565b80601f01602080910402602001604051908101604052809291908181526020018280546102a7906108e4565b80156102f45780601f106102c9576101008083540402835291602001916102f4565b820191906000526020600020905b8154815290600101906020018083116102d757829003601f168201915b505050505081526020016001820160009054906101000a900473ffffffffffffffffffffffffffffffffffffffff1673ffffffffffffffffffffffffffffffffffffffff1673ffffffffffffffffffffffffffffffffffffffff16815260200160028201548152505081526020019060010190610248565b505050509050919050565b828054610383906108e4565b90600052602060002090601f0160209004810192826103a557600085556103ec565b82601f106103be57805160ff19168380011785556103ec565b828001600101855582156103ec579182015b828111156103eb5782518255916020019190600101906103d0565b5b5090506103f991906103fd565b5090565b5b808211156104165760008160009055506001016103fe565b5090565b6000604051905090565b600080fd5b600080fd5b600080fd5b600080fd5b6000601f19601f8301169050919050565b7f4e487b7100000000000000000000000000000000000000000000000000000000600052604160045260246000fd5b61048182610438565b810181811067ffffffffffffffff821117156104a05761049f610449565b5b80604052505050565b60006104b361041a565b90506104bf8282610478565b919050565b600067ffffffffffffffff8211156104df576104de610449565b5b6104e882610438565b9050602081019050919050565b82818337600083830152505050565b6000610517610512846104c4565b6104a9565b90508281526020810184848401111561053357610532610433565b5b61053e8482856104f5565b509392505050565b600082601f83011261055b5761055a61042e565b5b813561056b848260208601610504565b91505092915050565b60006020828403121561058a57610589610424565b5b600082013567ffffffffffffffff8111156105a8576105a7610429565b5b6105b484828501610546565b91505092915050565b600073ffffffffffffffffffffffffffffffffffffffff82169050919050565b60006105e8826105bd565b9050919050565b6105f8816105dd565b811461060357600080fd5b50565b600081359050610615816105ef565b92915050565b60006020828403121561063157610630610424565b5b600061063f84828501610606565b91505092915050565b600081519050919050565b600082825260208201905092915050565b6000819050602082019050919050565b600081519050919050565b600082825260208201905092915050565b60005b838110156106ae578082015181840152602081019050610693565b838111156106bd576000848401525b50505050565b60006106ce82610674565b6106d8818561067f565b93506106e8818560208601610690565b6106f181610438565b840191505092915050565b610705816105dd565b82525050565b6000819050919050565b61071e8161070b565b82525050565b6000606083016000830151848203600086015261074182826106c3565b915050602083015161075660208601826106fc565b5060408301516107696040860182610715565b508091505092915050565b60006107808383610724565b905092915050565b6000602082019050919050565b60006107a082610648565b6107aa8185610653565b9350836020820285016107bc85610664565b8060005b858110156107f857848403895281516107d98582610774565b94506107e483610788565b925060208a019950506001810190506107c0565b50829750879550505050505092915050565b600060208201905081810360008301526108248184610795565b905092915050565b600082825260208201905092915050565b600061084882610674565b610852818561082c565b9350610862818560208601610690565b61086b81610438565b840191505092915050565b61087f8161070b565b82525050565b6000604082019050818103600083015261089f818561083d565b90506108ae6020830184610876565b9392505050565b7f4e487b7100000000000000000000000000000000000000000000000000000000600052602260045260246000fd5b600060028204905060018216806108fc57607f821691505b60208210810361090f5761090e6108b5565b5b5091905056fea2646970667358221220212ccf2689f89230ff6aac0459fb0fa6a0719eb3667a6bb4f8efc0ca6214f76a64736f6c634300080d0033",
  "immutableReferences": {},
  "source": "// SPDX-License-Identifier: MIT\r\npragma solidity ^0.8.0;\r\n\r\ncontract EncryptionLog {\r\n    struct EncryptionRecord {\r\n        string ipfsHash;\r\n        address owner;\r\n        uint256 timestamp;\r\n    }\r\n\r\n    mapping(address => EncryptionRecord[]) private userEncryptions;\r\n    event EncryptionLogged(address indexed user, string ipfsHash, uint256 timestamp);\r\n\r\n    function logEncryption(string memory _ipfsHash) public {\r\n        EncryptionRecord memory newRecord = EncryptionRecord({\r\n            ipfsHash: _ipfsHash,\r\n            owner: msg.sender,\r\n            timestamp: block.timestamp\r\n        });\r\n\r\n        userEncryptions[msg.sender].push(newRecord);\r\n        emit EncryptionLogged(msg.sender, _ipfsHash, block.timestamp);\r\n    }\r\n\r\n    function getEncryptions(address _user) public view returns (EncryptionRecord[] memory) {\r\n        return userEncryptions[_user];\r\n    }\r\n}\r\n",
  "sourcePath": "D:\\biocryptor\\contracts\\CPABEEncryption.sol",
  "compiler": {
    "name": "solc",
    "version": "0.8.13+commit.abaa5c0e.Emscripten.clang"
  },
  "schemaVersion": "3.4.16",
  "updatedAt": "2025-04-07T15:31:09.817Z",
  "networkType": "ethereum",
  "devdoc": {
    "kind": "dev",
    "methods": {},
    "version": 1
  },
  "userdoc": {
    "kind": "user",
    "methods": {},
    "version": 1
  }
}